{"abi":[{"type":"constructor","inputs":[{"name":"router_","type":"address","internalType":"address"}],"stateMutability":"nonpayable"},{"type":"function","name":"getScore","inputs":[{"name":"agentId","type":"uint256","internalType":"uint256"}],"outputs":[{"name":"","type":"uint256","internalType":"uint256"}],"stateMutability":"view"},{"type":"function","name":"router","inputs":[],"outputs":[{"name":"","type":"address","internalType":"address"}],"stateMutability":"view"},{"type":"function","name":"updateScore","inputs":[{"name":"agentId","type":"uint256","internalType":"uint256"},{"name":"success","type":"bool","internalType":"bool"}],"outputs":[{"name":"newScore","type":"uint256","internalType":"uint256"}],"stateMutability":"nonpayable"},{"type":"event","name":"ScoreUpdated","inputs":[{"name":"agentId","type":"uint256","indexed":true,"internalType":"uint256"},{"name":"newScore","type":"uint256","indexed":false,"internalType":"uint256"},{"name":"success","type":"bool","indexed":false,"internalType":"bool"}],"anonymous":false}],"bytecode":{"object":"0x60a0346100ac57601f6102c038819003918201601f19168301916001600160401b038311848410176100b0578084926020946040528339810103126100ac57516001600160a01b0381168082036100ac5715610075576080526040516101fb90816100c582396080518181816052015260a80152f35b60405162461bcd60e51b815260206004820152600f60248201526e1493d555115497d491545552549151608a1b6044820152606490fd5b5f80fd5b634e487b7160e01b5f52604160045260245ffdfe6080806040526004361015610012575f80fd5b5f3560e01c9081630e1af57b146101a057508063a2c16169146100855763f887ea401461003d575f80fd5b34610081575f366003190112610081576040517f00000000000000000000000000000000000000000000000000000000000000006001600160a01b03168152602090f35b5f80fd5b3461008157604036600319011261008157602435801515600435818303610081577f00000000000000000000000000000000000000000000000000000000000000006001600160a01b0316330361016d57602092815f525f845260405f2054905f1461013257604060017f5daaab86a9a4348e7f7cc86230715744289e475700ed1a986bba29e6f3d5710a9201935b835f525f865284825f205581519085825286820152a2604051908152f35b9182610162575b60407f5daaab86a9a4348e7f7cc86230715744289e475700ed1a986bba29e6f3d5710a91610114565b5f1990920191610139565b60405162461bcd60e51b815260206004820152600b60248201526a27a7262cafa927aaaa22a960a91b6044820152606490fd5b34610081576020366003190112610081576020906004355f525f825260405f20548152f3fea2646970667358221220fddc281dc5f7c8163b4f73052bcfb33379232cc0653de0fb20ecb97e760b0a0d64736f6c634300081e0033","linkReferences":{}},"methodIdentifiers":{"getScore(uint256)":"0e1af57b","router()":"f887ea40","updateScore(uint256,bool)":"a2c16169"},"id":19}