{"abi":[{"type":"constructor","inputs":[{"name":"router_","type":"address","internalType":"address"}],"stateMutability":"nonpayable"},{"type":"function","name":"getScore","inputs":[{"name":"agentId","type":"uint256","internalType":"uint256"}],"outputs":[{"name":"","type":"uint256","internalType":"uint256"}],"stateMutability":"view"},{"type":"function","name":"router","inputs":[],"outputs":[{"name":"","type":"address","internalType":"address"}],"stateMutability":"view"},{"type":"function","name":"updateScore","inputs":[{"name":"agentId","type":"uint256","internalType":"uint256"},{"name":"success","type":"bool","internalType":"bool"}],"outputs":[{"name":"newScore","type":"uint256","internalType":"uint256"}],"stateMutability":"nonpayable"},{"type":"event","name":"ScoreUpdated","inputs":[{"name":"agentId","type":"uint256","indexed":true,"internalType":"uint256"},{"name":"newScore","type":"uint256","indexed":false,"internalType":"uint256"},{"name":"success","type":"bool","indexed":false,"internalType":"bool"}],"anonymous":false}],"bytecode":{"object":"0x60a0346100ac57601f6102d338819003918201601f19168301916001600160401b038311848410176100b1578084926020946040528339810103126100ac57516001600160a01b0381168082036100ac57156100755760805260405161020b90816100c882396080518181816056015260ad0152f35b60405162461bcd60e51b815260206004820152600f60248201526e1493d555115497d491545552549151608a1b6044820152606490fd5b600080fd5b634e487b7160e01b600052604160045260246000fdfe608080604052600436101561001357600080fd5b60003560e01c9081630e1af57b146101ad57508063a2c161691461008a5763f887ea401461004057600080fd5b34610085576000366003190112610085576040517f00000000000000000000000000000000000000000000000000000000000000006001600160a01b03168152602090f35b600080fd5b3461008557604036600319011261008557602435801515600435818303610085577f00000000000000000000000000000000000000000000000000000000000000006001600160a01b0316330361017a5760209281600052600084526040600020549060001461013e57604060017f5daaab86a9a4348e7f7cc86230715744289e475700ed1a986bba29e6f3d5710a9201935b836000526000865284826000205581519085825286820152a2604051908152f35b918261016e575b60407f5daaab86a9a4348e7f7cc86230715744289e475700ed1a986bba29e6f3d5710a9161011d565b60001990920191610145565b60405162461bcd60e51b815260206004820152600b60248201526a27a7262cafa927aaaa22a960a91b6044820152606490fd5b3461008557602036600319011261008557602090600435600052600082526040600020548152f3fea264697066735822122069bca4736fab1b6acf33a0959c3935e15db0c38c61411a7d49afae7d0d923d7b64736f6c634300081e0033","linkReferences":{}},"methodIdentifiers":{"getScore(uint256)":"0e1af57b","router()":"f887ea40","updateScore(uint256,bool)":"a2c16169"},"id":19}