{"abi":[{"type":"constructor","inputs":[{"name":"usdc_","type":"address","internalType":"address"},{"name":"registry_","type":"address","internalType":"address"}],"stateMutability":"nonpayable"},{"type":"function","name":"cancel","inputs":[{"name":"taskId","type":"bytes32","internalType":"bytes32"}],"outputs":[],"stateMutability":"nonpayable"},{"type":"function","name":"claimTask","inputs":[{"name":"taskId","type":"bytes32","internalType":"bytes32"}],"outputs":[],"stateMutability":"nonpayable"},{"type":"function","name":"escrow","inputs":[],"outputs":[{"name":"","type":"address","internalType":"contract AgentEscrow"}],"stateMutability":"view"},{"type":"function","name":"nonce","inputs":[],"outputs":[{"name":"","type":"uint256","internalType":"uint256"}],"stateMutability":"view"},{"type":"function","name":"registry","inputs":[],"outputs":[{"name":"","type":"address","internalType":"contract AgentRegistry"}],"stateMutability":"view"},{"type":"function","name":"reputation","inputs":[],"outputs":[{"name":"","type":"address","internalType":"contract ReputationEngine"}],"stateMutability":"view"},{"type":"function","name":"routePayment","inputs":[{"name":"agentId","type":"uint256","internalType":"uint256"},{"name":"taskData","type":"bytes","internalType":"bytes"},{"name":"reward","type":"uint96","internalType":"uint96"},{"name":"deadline","type":"uint64","internalType":"uint64"},{"name":"verifier","type":"address","internalType":"address"},{"name":"expectedResultHash","type":"bytes32","internalType":"bytes32"},{"name":"authValidAfter","type":"uint64","internalType":"uint64"},{"name":"authValidBefore","type":"uint64","internalType":"uint64"},{"name":"authNonce","type":"bytes32","internalType":"bytes32"},{"name":"authV","type":"uint8","internalType":"uint8"},{"name":"authR","type":"bytes32","internalType":"bytes32"},{"name":"authS","type":"bytes32","internalType":"bytes32"}],"outputs":[{"name":"taskId","type":"bytes32","internalType":"bytes32"}],"stateMutability":"nonpayable"},{"type":"function","name":"settlePayment","inputs":[{"name":"taskId","type":"bytes32","internalType":"bytes32"},{"name":"result","type":"bytes","internalType":"bytes"}],"outputs":[],"stateMutability":"nonpayable"},{"type":"function","name":"tasks","inputs":[{"name":"","type":"bytes32","internalType":"bytes32"}],"outputs":[{"name":"agentId","type":"uint256","internalType":"uint256"},{"name":"payer","type":"address","internalType":"address"},{"name":"claimer","type":"address","internalType":"address"},{"name":"payoutAddress","type":"address","internalType":"address"},{"name":"createdAt","type":"uint64","internalType":"uint64"},{"name":"deadline","type":"uint64","internalType":"uint64"},{"name":"reward","type":"uint96","internalType":"uint96"},{"name":"expectedResultHash","type":"bytes32","internalType":"bytes32"},{"name":"verifier","type":"address","internalType":"address"},{"name":"status","type":"uint8","internalType":"enum PaymentRouter.TaskStatus"},{"name":"taskData","type":"bytes","internalType":"bytes"},{"name":"authValidAfter","type":"uint64","internalType":"uint64"},{"name":"authValidBefore","type":"uint64","internalType":"uint64"},{"name":"authNonce","type":"bytes32","internalType":"bytes32"},{"name":"authV","type":"uint8","internalType":"uint8"},{"name":"authR","type":"bytes32","internalType":"bytes32"},{"name":"authS","type":"bytes32","internalType":"bytes32"}],"stateMutability":"view"},{"type":"function","name":"usdc","inputs":[],"outputs":[{"name":"","type":"address","internalType":"contract IERC20"}],"stateMutability":"view"},{"type":"function","name":"usdcAuth","inputs":[],"outputs":[{"name":"","type":"address","internalType":"contract IUSDCTransferWithAuthorization"}],"stateMutability":"view"},{"type":"event","name":"TaskCancelled","inputs":[{"name":"taskId","type":"bytes32","indexed":true,"internalType":"bytes32"}],"anonymous":false},{"type":"event","name":"TaskClaimed","inputs":[{"name":"taskId","type":"bytes32","indexed":true,"internalType":"bytes32"},{"name":"claimer","type":"address","indexed":true,"internalType":"address"}],"anonymous":false},{"type":"event","name":"TaskCompleted","inputs":[{"name":"taskId","type":"bytes32","indexed":true,"internalType":"bytes32"},{"name":"success","type":"bool","indexed":false,"internalType":"bool"}],"anonymous":false},{"type":"event","name":"TaskRouted","inputs":[{"name":"taskId","type":"bytes32","indexed":true,"internalType":"bytes32"},{"name":"agentId","type":"uint256","indexed":true,"internalType":"uint256"},{"name":"payer","type":"address","indexed":true,"internalType":"address"},{"name":"reward","type":"uint256","indexed":false,"internalType":"uint256"}],"anonymous":false}],"bytecode":{"object":"0x610120346101ec57601f6123ce38819003918201601f19168301916001600160401b0383118484101761016f5780849260409485528339810103126101ec57610053602061004c836101f0565b92016101f0565b6001600160a01b039091169081156101b7576001600160a01b03169081156101835760e081905261010052608052604051610708808201906001600160401b0382118383101761016f576020918391611a0683393081520301905ff080156101645760a0526040516102c0808201906001600160401b0382118383101761016f57602091839161210e83393081520301905ff080156101645760c05260405161180190816102058239608051818181610369015261153d015260a0518181816107d901528181610d740152610e7a015260c051818181610db901528181610f0401526112e7015260e05181818161080f015261168001526101005181818161043401528181611234015261163f0152f35b6040513d5f823e3d90fd5b634e487b7160e01b5f52604160045260245ffd5b60405162461bcd60e51b815260206004820152600c60248201526b149151d7d49154555254915160a21b6044820152606490fd5b60405162461bcd60e51b815260206004820152600d60248201526c1554d110d7d491545552549151609a1b6044820152606490fd5b5f80fd5b51906001600160a01b03821682036101ec5756fe6080806040526004361015610012575f80fd5b5f905f3560e01c9081633e413bee1461166e5750806347975f0b1461162a57806370f8c6f91461156c5780637b1039991461152857806388079c371461109c578063affed0e01461107f578063c4d252f514610de8578063c52164c614610da3578063e2fdcc1714610d5e578063e38d0f9b146102a65763e579f50014610097575f80fd5b346102a35760203660031901126102a357600435815260016020526040812080549060018060a01b036001820154169260018060a01b03600283015416906003830154906004840154906005850154600686015460ff8160a01c169060078801926040518094869080549061010b826116dc565b8085529160018116908115610285575060011461024a575b5050036101309085611714565b60088901549560098a015497600a8b015460ff1699600b8c01549b600c01549c6040519e8f9182526020820152604001528c600160a01b600190038216906060015260a01c6001600160401b031660808d01526001600160401b03811660a08d015260401c6001600160601b031660c08c015260e08b0152600160a01b60019003166101008a0152600581101561023657889693602096936102409996936001600160401b03936101208b01526102206101408b01528051988991826102208d0152018b8b015e8888018a015280821661016089015260401c166101808701526101a08601526101c08501526101e0840152610200830152601f01601f19168101030190f35b634e487b7160e01b83526021600452602483fd5b8852602088208892505b81831061026957505081016020015f80610123565b6020919350806001915483858b01015201910190918692610254565b9150506020925060ff191682840152151560051b8201015f80610123565b80fd5b50346102a3576101803660031901126102a3576024356001600160401b0381116108d9576102d89036906004016116af565b91906044356001600160601b03811681036108ca576064356001600160401b038116809103610d5a576084356001600160a01b0381169590869003610d565760c435936001600160401b0385168503610d525760e4356001600160401b03811681036109c657610124359260ff84168403610d4e57604051632de5aaf760e01b8152600480359082015288816024817f00000000000000000000000000000000000000000000000000000000000000006001600160a01b03165afa908115610d43578991610c2b575b5060c081015115610bf5576001600160601b03871615610bc25785158015610bb9575b15610b85578915610b4c5760200180519097906001600160a01b031615610b1a57426001600160401b0384161115610ae6576001600160401b0381166001600160401b0384161115610ab3576040516374a5008160e11b81523360048201526101043560248201526020816044817f00000000000000000000000000000000000000000000000000000000000000006001600160a01b03165afa908115610aa8578a91610a6a575b50610a395788545f198114610a2557600101808a5560405160208101914683523060601b60408301523360601b605483015260043560688301526088820152608881526104ba60a882611714565b51902097888a52600160205260ff600660408c20015460a01c166005811015610a11576109de575160405161022081019b909790916001600160a01b03166001600160401b038d11898e10176109ca578b9c60409c999a9b9c526004358a523360208b01528860408b015260608a01526001600160401b03421660808a015260a08901526001600160601b03891660c089015260a43560e0890152610100880152600161012088015261056c8261176a565b6105796040519182611714565b82815236838601116109c65760ff966020846001600160401b039795889683860137830101526101408801521661016086015216610180840152610104356101a0840152166101c0820152610144356101e082015261016435610200820152828452600160208181526040808720845181559184015192820180546001600160a01b03199081166001600160a01b0395861617909155818501516002840180548316918616919091179055606085015160038401805460808801516001600160e01b03199091169287169290921760a092831b67ffffffffffffffff60a01b1617905585015160048401805460c08801519084166001600160401b0393909316929092179190931b73ffffffffffffffffffffffff0000000000000000161790915560e084015160058084019190915561010085015160068401805490931694169390931781556101208401519193929091908110156109b257815460ff60a01b191660a09190911b60ff60a01b161790556101408101518051906001600160401b03821161099e5761070f60078501546116dc565b601f8111610956575b50602090601f83116001146108e8579180600c9492610200948a926108dd575b50508160011b915f199060031b1c19161760078501555b600884016001600160401b038061016084015116166001600160401b031982541617815561018082015167ffffffffffffffff60401b82549160401b169067ffffffffffffffff60401b19161790556101a08101516009850155600a840160ff6101c08301511660ff198254161790556101e0810151600b85015501519101558260018060a01b037f000000000000000000000000000000000000000000000000000000000000000016803b156108d957604051634bec12f960e11b81527f00000000000000000000000000000000000000000000000000000000000000006001600160a01b03166004820152336024820152604481018590526001600160601b038416606482015291908290608490829084905af180156108ce576108b5575b602083836001600160601b03604051911681523390827fb02809acbcc9362aa0f9200e16b377069db1cf596f61a91b0ef045a02b0c1bee8560043593a4604051908152f35b6108c0848092611714565b6108ca5782610870565b8280fd5b6040513d86823e3d90fd5b5080fd5b015190505f80610738565b6007850188528188209190601f198416895b81811061093e575092600192859261020096600c989610610926575b505050811b01600785015561074f565b01515f1960f88460031b161c191690555f8080610916565b929360206001819287860151815501950193016108fa565b60078501885260208820601f840160051c81019160208510610994575b601f0160051c01905b8181106109895750610718565b88815560010161097c565b9091508190610973565b634e487b7160e01b87526041600452602487fd5b634e487b7160e01b87526021600452602487fd5b8680fd5b634e487b7160e01b8c52604160045260248cfd5b60405162461bcd60e51b815260206004820152600b60248201526a5441534b5f45584953545360a81b6044820152606490fd5b634e487b7160e01b8b52602160045260248bfd5b634e487b7160e01b8a52601160045260248afd5b60405162461bcd60e51b81526020600482015260096024820152681055551217d554d15160ba1b6044820152606490fd5b90506020813d602011610aa0575b81610a8560209383611714565b81010312610a9c57610a9690611749565b5f61046c565b8980fd5b3d9150610a78565b6040513d8c823e3d90fd5b60405162461bcd60e51b815260206004820152600b60248201526a415554485f57494e444f5760a81b6044820152606490fd5b60405162461bcd60e51b815260206004820152600c60248201526b1055551217d156141254915160a21b6044820152606490fd5b60405162461bcd60e51b815260206004820152600a60248201526910905117d4105653d55560b21b6044820152606490fd5b60405162461bcd60e51b8152602060048201526011602482015270159154925192515497d491545552549151607a1b6044820152606490fd5b60405162461bcd60e51b815260206004820152600c60248201526b4241445f444541444c494e4560a01b6044820152606490fd5b504286116103c4565b60405162461bcd60e51b815260206004820152600b60248201526a5245574152445f5a45524f60a81b6044820152606490fd5b60405162461bcd60e51b815260206004820152600e60248201526d4147454e545f494e41435449564560901b6044820152606490fd5b90503d808a833e610c3c8183611714565b810190602081830312610a9c578051906001600160401b038211610d3f570160e081830312610a9c576040519160e083018381106001600160401b038211176109ca57604052610c8b82611756565b8352610c9960208301611756565b602084015260408201516001600160601b0381168103610d3b57604084015260608201516001600160401b038111610d3b5781610cd7918401611785565b606084015260808201516001600160401b038111610d3b5781610cfb918401611785565b608084015260a08201516001600160401b038111610d3b5791610d2560c092610d30948301611785565b60a085015201611749565b60c08201525f6103a1565b8b80fd5b8a80fd5b6040513d8b823e3d90fd5b8780fd5b8580fd5b8480fd5b8380fd5b50346102a357806003193601126102a3576040517f00000000000000000000000000000000000000000000000000000000000000006001600160a01b03168152602090f35b50346102a357806003193601126102a3576040517f00000000000000000000000000000000000000000000000000000000000000006001600160a01b03168152602090f35b50346102a35760203660031901126102a3576004358082526001602052604082206006810160ff815460a01c16600581101561106b5760018114908115611060575b501561102e576001820180546001600160a01b03163303610ffc576001600160401b036004840154168015159081610ff2575b5015610fbf57815460ff60a01b1916600160a21b179091555483907f00000000000000000000000000000000000000000000000000000000000000006001600160a01b039081169116813b156108ca5782916044839260405194859384926249cec960e61b84528a600485015260248401525af18015610fb457610f9f575b50505460405163a2c1616960e01b8152600481019190915260248101839052602081604481867f00000000000000000000000000000000000000000000000000000000000000006001600160a01b03165af18015610f9457610f61575b507fe1e1d79b8f28d3379fc32f617eaf54dd6bd4071074c77e91134770e04a81d6268280a280f35b6020813d602011610f8c575b81610f7a60209383611714565b81010312610f885751610f39565b5f80fd5b3d9150610f6d565b6040513d85823e3d90fd5b81610fa991611714565b6108ca57825f610edc565b6040513d84823e3d90fd5b60405162461bcd60e51b815260206004820152600b60248201526a1393d517d156141254915160aa1b6044820152606490fd5b905042115f610e5d565b60405162461bcd60e51b815260206004820152600a60248201526927a7262cafa820aca2a960b11b6044820152606490fd5b60405162461bcd60e51b815260206004820152600a6024820152694e4f545f41435449564560b01b6044820152606490fd5b60029150145f610e2a565b634e487b7160e01b85526021600452602485fd5b50346102a357806003193601126102a35760209054604051908152f35b5034610f88576040366003190112610f88576004356024356001600160401b038111610f88576110d09036906004016116af565b90825f52600160205260405f20916006830190815460ff8160a01c166005811015611514576002036114e15760028501546001600160a01b031633036114ad5760048501936001600160401b0385541680159081156114a2575b501561146b576007860160058701549360405194859363189a0c4b60e31b8552606060048601525f9380549061115f826116dc565b918260648901526001811690815f146114465750600114611409575b50506020959383879387958694600319868603016024870152818552868501375f8383018601526044840152601f01601f1916010301916001600160a01b03165afa90811561138f575f916113cf575b501561139a57805460ff60a01b1916600360a01b17905560018201546003830154915460088401546009850154600a860154600b870154600c88015460409590951c6001600160601b03169660ff92909216956001600160a01b039283169593949083169390927f00000000000000000000000000000000000000000000000000000000000000001691823b15610f88575f97610124966001600160401b038a966040519c8d9b8c9a6371f70b0760e11b8c5260048c015260248b015260448a015281811660648a015260401c16608488015260a487015260c486015260e48501526101048401525af1801561138f5761137a575b505460405163a2c1616960e01b8152600481019190915260016024820152602081604481867f00000000000000000000000000000000000000000000000000000000000000006001600160a01b03165af18015610f945761134b575b507f684dee5ed476d8b5cf94d6b530b4f5b1696b5e35b6edecfc00f97f76c3a1bc32602060405160018152a280f35b6020813d602011611372575b8161136460209383611714565b81010312610f88575161131c565b3d9150611357565b6113879193505f90611714565b5f915f6112c0565b6040513d5f823e3d90fd5b60405162461bcd60e51b815260206004820152600d60248201526c15915492519657d19052531151609a1b6044820152606490fd5b90506020813d602011611401575b816113ea60209383611714565b81010312610f88576113fb90611749565b5f6111cb565b3d91506113dd565b5f90815260208120929550915b81831061142c575050840160840192808361117b565b80546084848b010152889650602090920191600101611416565b60ff191660848981019190915292151560051b8801909201955082915084905061117b565b60405162461bcd60e51b815260206004820152600f60248201526e111150511312539157d41054d4d151608a1b6044820152606490fd5b90504211155f61112a565b60405162461bcd60e51b815260206004820152600c60248201526b27a7262cafa1a620a4a6a2a960a11b6044820152606490fd5b60405162461bcd60e51b815260206004820152600b60248201526a1393d517d0d3105253515160aa1b6044820152606490fd5b634e487b7160e01b5f52602160045260245ffd5b34610f88575f366003190112610f88576040517f00000000000000000000000000000000000000000000000000000000000000006001600160a01b03168152602090f35b34610f88576020366003190112610f8857600435805f52600160205260405f20600681019060ff825460a01c166005811015611514576001036115f857815460ff60a01b1916600160a11b1790915560020180546001600160a01b03191633908117909155907f0e1f58463da369c5bf09630219fad2558dd2b2ead275c5dc36269b384dc138fe5f80a3005b60405162461bcd60e51b815260206004820152600a6024820152691393d517d413d4d5115160b21b6044820152606490fd5b34610f88575f366003190112610f88576040517f00000000000000000000000000000000000000000000000000000000000000006001600160a01b03168152602090f35b34610f88575f366003190112610f88577f00000000000000000000000000000000000000000000000000000000000000006001600160a01b03168152602090f35b9181601f84011215610f88578235916001600160401b038311610f885760208381860195010111610f8857565b90600182811c9216801561170a575b60208310146116f657565b634e487b7160e01b5f52602260045260245ffd5b91607f16916116eb565b90601f801991011681019081106001600160401b0382111761173557604052565b634e487b7160e01b5f52604160045260245ffd5b51908115158203610f8857565b51906001600160a01b0382168203610f8857565b6001600160401b03811161173557601f01601f191660200190565b81601f82011215610f885780519061179c8261176a565b926117aa6040519485611714565b82845260208383010111610f8857815f9260208093018386015e830101529056fea2646970667358221220fdc1633136f25cd7f15dbb3108c441b7e46bca11026338dad8d58f118622747664736f6c634300081e003360a0346100ba57601f61070838819003918201601f19168301916001600160401b038311848410176100be578084926020946040528339810103126100ba57516001600160a01b0381168082036100ba57156100835760805260405161063590816100d3823960805181818160650152818160bb0152818161029b01526104960152f35b60405162461bcd60e51b815260206004820152600f60248201526e1493d555115497d491545552549151608a1b6044820152606490fd5b5f80fd5b634e487b7160e01b5f52604160045260245ffdfe60806040526004361015610011575f80fd5b5f3560e01c80631273b240146104735780633d4dff7b1461041357806397d825f21461025f578063d746010b146100985763f887ea4014610050575f80fd5b34610094575f366003190112610094576040517f00000000000000000000000000000000000000000000000000000000000000006001600160a01b03168152602090f35b5f80fd5b34610094576040366003190112610094576004356100b461053b565b906100e9337f00000000000000000000000000000000000000000000000000000000000000006001600160a01b031614610551565b5f81815260208190526040902080546001600160a01b0316929061010e84151561058b565b600381016001815461012360ff8216156105c3565b60ff19161790556020600260018060a01b0360018401541692019260648454965f60405195869485936323b872dd60e01b8552600485015260018060a01b0316998a602485015260448401525af1908115610254575f916101ef575b50156101b35760207fc8fa66dff4b9073528c3f1bf21a8dc9a18fdf09847e88e96188bc953aef519f09154604051908152a3005b60405162461bcd60e51b81526020600482015260146024820152731514905394d1915497d19493d357d1905253115160621b6044820152606490fd5b905060203d60201161024d575b601f8101601f1916820167ffffffffffffffff8111838210176102395760209183916040528101031261009457518015158103610094578461017f565b634e487b7160e01b5f52604160045260245ffd5b503d6101fc565b6040513d5f823e3d90fd5b34610094576080366003190112610094576004356001600160a01b038116908190036100945761028d61053b565b60643590604435906102c9337f00000000000000000000000000000000000000000000000000000000000000006001600160a01b031614610551565b5f828152602081905260409020546001600160a01b03166103e35782156103b05760405192608084019084821067ffffffffffffffff8311176102395760409182526001600160a01b0392831680865260208087018881528785018481525f60608a018181528982528185529087902099518a549089166001600160a01b0319918216178b55925160018b018054919099169316929092179096559451600288015593516003909601805460ff191696151560ff169690961790955590519081527fcfccc5211684bc31ce945214025a7453ba30a1ffcc38fcb691ce742437f3f2569190a4005b60405162461bcd60e51b815260206004820152600b60248201526a414d4f554e545f5a45524f60a81b6044820152606490fd5b60405162461bcd60e51b81526020600482015260086024820152674455505f5441534b60c01b6044820152606490fd5b34610094576020366003190112610094576004355f525f602052608060405f2060018060a01b038154169060018060a01b036001820154169060ff6003600283015492015416916040519384526020840152604083015215156060820152f35b346100945760403660031901126100945760043561048f61053b565b906104c4337f00000000000000000000000000000000000000000000000000000000000000006001600160a01b031614610551565b805f525f6020527ff552ca82e113ac3c539c3d617f29fcd19c172a0c75dad017555c9e109f7fe1836020600260405f2061050860018060a01b03825416151561058b565b600381016001815461051d60ff8216156105c3565b60ff191617905501546040519081526001600160a01b0390941693a3005b602435906001600160a01b038216820361009457565b1561055857565b60405162461bcd60e51b815260206004820152600b60248201526a27a7262cafa927aaaa22a960a91b6044820152606490fd5b1561059257565b60405162461bcd60e51b81526020600482015260096024820152681393d517d193d5539160ba1b6044820152606490fd5b156105ca57565b60405162461bcd60e51b815260206004820152600d60248201526c1053149150511657d192539053609a1b6044820152606490fdfea26469706673582212203d3a0ec811fa51fbe6142fa6964909f4d52de7bc88393aaa5e813c4b4235d35464736f6c634300081e003360a0346100ac57601f6102c038819003918201601f19168301916001600160401b038311848410176100b0578084926020946040528339810103126100ac57516001600160a01b0381168082036100ac5715610075576080526040516101fb90816100c582396080518181816052015260a80152f35b60405162461bcd60e51b815260206004820152600f60248201526e1493d555115497d491545552549151608a1b6044820152606490fd5b5f80fd5b634e487b7160e01b5f52604160045260245ffdfe6080806040526004361015610012575f80fd5b5f3560e01c9081630e1af57b146101a057508063a2c16169146100855763f887ea401461003d575f80fd5b34610081575f366003190112610081576040517f00000000000000000000000000000000000000000000000000000000000000006001600160a01b03168152602090f35b5f80fd5b3461008157604036600319011261008157602435801515600435818303610081577f00000000000000000000000000000000000000000000000000000000000000006001600160a01b0316330361016d57602092815f525f845260405f2054905f1461013257604060017f5daaab86a9a4348e7f7cc86230715744289e475700ed1a986bba29e6f3d5710a9201935b835f525f865284825f205581519085825286820152a2604051908152f35b9182610162575b60407f5daaab86a9a4348e7f7cc86230715744289e475700ed1a986bba29e6f3d5710a91610114565b5f1990920191610139565b60405162461bcd60e51b815260206004820152600b60248201526a27a7262cafa927aaaa22a960a91b6044820152606490fd5b34610081576020366003190112610081576020906004355f525f825260405f20548152f3fea2646970667358221220fddc281dc5f7c8163b4f73052bcfb33379232cc0653de0fb20ecb97e760b0a0d64736f6c634300081e0033","linkReferences":{}},"methodIdentifiers":{"cancel(bytes32)":"c4d252f5","claimTask(bytes32)":"70f8c6f9","escrow()":"e2fdcc17","nonce()":"affed0e0","registry()":"7b103999","reputation()":"c52164c6","routePayment(uint256,bytes,uint96,uint64,address,bytes32,uint64,uint64,bytes32,uint8,bytes32,bytes32)":"e38d0f9b","settlePayment(bytes32,bytes)":"88079c37","tasks(bytes32)":"e579f500","usdc()":"3e413bee","usdcAuth()":"47975f0b"},"id":18}