{"abi":[{"type":"constructor","inputs":[{"name":"usdc_","type":"address","internalType":"address"},{"name":"registry_","type":"address","internalType":"address"}],"stateMutability":"nonpayable"},{"type":"function","name":"cancel","inputs":[{"name":"taskId","type":"bytes32","internalType":"bytes32"}],"outputs":[],"stateMutability":"nonpayable"},{"type":"function","name":"claimTask","inputs":[{"name":"taskId","type":"bytes32","internalType":"bytes32"}],"outputs":[],"stateMutability":"nonpayable"},{"type":"function","name":"escrow","inputs":[],"outputs":[{"name":"","type":"address","internalType":"contract AgentEscrow"}],"stateMutability":"view"},{"type":"function","name":"nonce","inputs":[],"outputs":[{"name":"","type":"uint256","internalType":"uint256"}],"stateMutability":"view"},{"type":"function","name":"registry","inputs":[],"outputs":[{"name":"","type":"address","internalType":"contract AgentRegistry"}],"stateMutability":"view"},{"type":"function","name":"reputation","inputs":[],"outputs":[{"name":"","type":"address","internalType":"contract ReputationEngine"}],"stateMutability":"view"},{"type":"function","name":"routePayment","inputs":[{"name":"agentId","type":"uint256","internalType":"uint256"},{"name":"taskData","type":"bytes","internalType":"bytes"},{"name":"reward","type":"uint96","internalType":"uint96"},{"name":"deadline","type":"uint64","internalType":"uint64"},{"name":"verifier","type":"address","internalType":"address"},{"name":"expectedResultHash","type":"bytes32","internalType":"bytes32"},{"name":"authValidAfter","type":"uint64","internalType":"uint64"},{"name":"authValidBefore","type":"uint64","internalType":"uint64"},{"name":"authNonce","type":"bytes32","internalType":"bytes32"},{"name":"authV","type":"uint8","internalType":"uint8"},{"name":"authR","type":"bytes32","internalType":"bytes32"},{"name":"authS","type":"bytes32","internalType":"bytes32"}],"outputs":[{"name":"taskId","type":"bytes32","internalType":"bytes32"}],"stateMutability":"nonpayable"},{"type":"function","name":"settlePayment","inputs":[{"name":"taskId","type":"bytes32","internalType":"bytes32"},{"name":"result","type":"bytes","internalType":"bytes"}],"outputs":[],"stateMutability":"nonpayable"},{"type":"function","name":"tasks","inputs":[{"name":"","type":"bytes32","internalType":"bytes32"}],"outputs":[{"name":"agentId","type":"uint256","internalType":"uint256"},{"name":"payer","type":"address","internalType":"address"},{"name":"claimer","type":"address","internalType":"address"},{"name":"payoutAddress","type":"address","internalType":"address"},{"name":"createdAt","type":"uint64","internalType":"uint64"},{"name":"deadline","type":"uint64","internalType":"uint64"},{"name":"reward","type":"uint96","internalType":"uint96"},{"name":"expectedResultHash","type":"bytes32","internalType":"bytes32"},{"name":"verifier","type":"address","internalType":"address"},{"name":"status","type":"uint8","internalType":"enum PaymentRouter.TaskStatus"},{"name":"taskData","type":"bytes","internalType":"bytes"},{"name":"authValidAfter","type":"uint64","internalType":"uint64"},{"name":"authValidBefore","type":"uint64","internalType":"uint64"},{"name":"authNonce","type":"bytes32","internalType":"bytes32"},{"name":"authV","type":"uint8","internalType":"uint8"},{"name":"authR","type":"bytes32","internalType":"bytes32"},{"name":"authS","type":"bytes32","internalType":"bytes32"}],"stateMutability":"view"},{"type":"function","name":"usdc","inputs":[],"outputs":[{"name":"","type":"address","internalType":"contract IERC20"}],"stateMutability":"view"},{"type":"function","name":"usdcAuth","inputs":[],"outputs":[{"name":"","type":"address","internalType":"contract IUSDCTransferWithAuthorization"}],"stateMutability":"view"},{"type":"event","name":"TaskCancelled","inputs":[{"name":"taskId","type":"bytes32","indexed":true,"internalType":"bytes32"}],"anonymous":false},{"type":"event","name":"TaskClaimed","inputs":[{"name":"taskId","type":"bytes32","indexed":true,"internalType":"bytes32"},{"name":"claimer","type":"address","indexed":true,"internalType":"address"}],"anonymous":false},{"type":"event","name":"TaskCompleted","inputs":[{"name":"taskId","type":"bytes32","indexed":true,"internalType":"bytes32"},{"name":"success","type":"bool","indexed":false,"internalType":"bool"}],"anonymous":false},{"type":"event","name":"TaskRouted","inputs":[{"name":"taskId","type":"bytes32","indexed":true,"internalType":"bytes32"},{"name":"agentId","type":"uint256","indexed":true,"internalType":"uint256"},{"name":"payer","type":"address","indexed":true,"internalType":"address"},{"name":"reward","type":"uint256","indexed":false,"internalType":"uint256"}],"anonymous":false}],"bytecode":{"object":"0x610120346101f157601f61245538819003918201601f19168301916001600160401b038311848410176101725780849260409485528339810103126101f157610053602061004c836101f6565b92016101f6565b6001600160a01b039091169081156101bc576001600160a01b03169081156101885760e081905261010052608052604051610739808201906001600160401b03821183831017610172576020918391611a4983393081520301906000f080156101665760a0526040516102d3808201906001600160401b0382118383101761017257602091839161218283393081520301906000f080156101665760c05260405161183e908161020b823960805181818161036b015261154f015260a0518181816107dd01528181610d790152610e7f015260c051818181610dbe01528181610f0901526112f1015260e05181818161081301526116970152610100518181816104360152818161123901526116540152f35b6040513d6000823e3d90fd5b634e487b7160e01b600052604160045260246000fd5b60405162461bcd60e51b815260206004820152600c60248201526b149151d7d49154555254915160a21b6044820152606490fd5b60405162461bcd60e51b815260206004820152600d60248201526c1554d110d7d491545552549151609a1b6044820152606490fd5b600080fd5b51906001600160a01b03821682036101f15756fe608080604052600436101561001357600080fd5b600090813560e01c9081633e413bee146116835750806347975f0b1461163e57806370f8c6f91461157e5780637b1039991461153957806388079c37146110a2578063affed0e014611085578063c4d252f514610ded578063c52164c614610da8578063e2fdcc1714610d63578063e38d0f9b146102a85763e579f5001461009a57600080fd5b346102a55760203660031901126102a557600435815260016020526040812090815460018060a01b036001840154169260018060a01b036002820154166003820154600483015460058401549560068501549060ff8260a01c16916007870198604051809a849080549061010d826116f3565b8085529160018116908115610287575060011461024d575b505003610132908b61172d565b600888015494600989015496600a8a015460ff1698600b8b01549a600c01549b6040519e8f9182526020820152604001528c600160a01b600190038216906060015260a01c6001600160401b031660808d01526001600160401b03811660a08d015260401c6001600160601b031660c08c015260e08b0152600160a01b60019003166101008a015260058210156102395750916001600160401b038896949261024098969461012089015261022061014089015261020087518098816102208c015260208c8c019101611764565b80821661016089015260401c166101808701526101a08601526101c08501526101e0840152610200830152601f01601f19168101030190f35b634e487b7160e01b81526021600452602490fd5b8652602086208692505b81831061026c57505081016020013880610125565b80602092948385600194549201015201910190918c92610257565b9150506020925060ff191682840152151560051b8201013880610125565b80fd5b50346102a5576101803660031901126102a5576024356001600160401b0381116108dd576102da9036906004016116c6565b91906044356001600160601b03811681036108ce576064356001600160401b038116809103610d5f576084356001600160a01b0381169590869003610d5b5760c435936001600160401b0385168503610d575760e4356001600160401b03811681036109cb57610124359260ff84168403610d5357604051632de5aaf760e01b8152600480359082015288816024817f00000000000000000000000000000000000000000000000000000000000000006001600160a01b03165afa908115610d48578991610c30575b5060c081015115610bfa576001600160601b03871615610bc75785158015610bbe575b15610b8a578915610b515760200180519097906001600160a01b031615610b1f57426001600160401b0384161115610aeb576001600160401b0381166001600160401b0384161115610ab8576040516374a5008160e11b81523360048201526101043560248201526020816044817f00000000000000000000000000000000000000000000000000000000000000006001600160a01b03165afa908115610aad578a91610a6f575b50610a3e5788546000198114610a2a57600101808a5560405160208101914683523060601b60408301523360601b605483015260043560688301526088820152608881526104bd60a88261172d565b51902097888a52600160205260ff600660408c20015460a01c166005811015610a16576109e3575160405161022081019b909790916001600160a01b03166001600160401b038d11898e10176109cf578b9c60409c999a9b9c526004358a523360208b01528860408b015260608a01526001600160401b03421660808a015260a08901526001600160601b03891660c089015260a43560e0890152610100880152600161012088015261056f826117a8565b61057c604051918261172d565b82815236838601116109cb5760ff966020846001600160401b039795889683860137830101526101408801521661016086015216610180840152610104356101a0840152166101c0820152610144356101e082015261016435610200820152828452600160208181526040808720845181559184015192820180546001600160a01b03199081166001600160a01b0395861617909155818501516002840180548316918616919091179055606085015160038401805460808801516001600160e01b03199091169287169290921760a092831b67ffffffffffffffff60a01b1617905585015160048401805460c08801519084166001600160401b0393909316929092179190931b73ffffffffffffffffffffffff0000000000000000161790915560e084015160058084019190915561010085015160068401805490931694169390931781556101208401519193929091908110156109b757815460ff60a01b191660a09190911b60ff60a01b161790556101408101518051906001600160401b0382116109a35761071260078501546116f3565b601f811161095b575b50602090601f83116001146108ec579180600c9492610200948a926108e1575b50508160011b916000199060031b1c19161760078501555b600884016001600160401b038061016084015116166001600160401b031982541617815561018082015167ffffffffffffffff60401b82549160401b169067ffffffffffffffff60401b19161790556101a08101516009850155600a840160ff6101c08301511660ff198254161790556101e0810151600b85015501519101558260018060a01b037f000000000000000000000000000000000000000000000000000000000000000016803b156108dd57604051634bec12f960e11b81527f00000000000000000000000000000000000000000000000000000000000000006001600160a01b03166004820152336024820152604481018590526001600160601b038416606482015291908290608490829084905af180156108d2576108b9575b602083836001600160601b03604051911681523390827fb02809acbcc9362aa0f9200e16b377069db1cf596f61a91b0ef045a02b0c1bee8560043593a4604051908152f35b6108c484809261172d565b6108ce5782610874565b8280fd5b6040513d86823e3d90fd5b5080fd5b01519050388061073b565b6007850188528188209190601f198416895b818110610943575092600192859261020096600c98961061092a575b505050811b016007850155610753565b015160001960f88460031b161c1916905538808061091a565b929360206001819287860151815501950193016108fe565b60078501885260208820601f840160051c81019160208510610999575b601f0160051c01905b81811061098e575061071b565b888155600101610981565b9091508190610978565b634e487b7160e01b87526041600452602487fd5b634e487b7160e01b87526021600452602487fd5b8680fd5b634e487b7160e01b8c52604160045260248cfd5b60405162461bcd60e51b815260206004820152600b60248201526a5441534b5f45584953545360a81b6044820152606490fd5b634e487b7160e01b8b52602160045260248bfd5b634e487b7160e01b8a52601160045260248afd5b60405162461bcd60e51b81526020600482015260096024820152681055551217d554d15160ba1b6044820152606490fd5b90506020813d602011610aa5575b81610a8a6020938361172d565b81010312610aa157610a9b90611787565b3861046e565b8980fd5b3d9150610a7d565b6040513d8c823e3d90fd5b60405162461bcd60e51b815260206004820152600b60248201526a415554485f57494e444f5760a81b6044820152606490fd5b60405162461bcd60e51b815260206004820152600c60248201526b1055551217d156141254915160a21b6044820152606490fd5b60405162461bcd60e51b815260206004820152600a60248201526910905117d4105653d55560b21b6044820152606490fd5b60405162461bcd60e51b8152602060048201526011602482015270159154925192515497d491545552549151607a1b6044820152606490fd5b60405162461bcd60e51b815260206004820152600c60248201526b4241445f444541444c494e4560a01b6044820152606490fd5b504286116103c6565b60405162461bcd60e51b815260206004820152600b60248201526a5245574152445f5a45524f60a81b6044820152606490fd5b60405162461bcd60e51b815260206004820152600e60248201526d4147454e545f494e41435449564560901b6044820152606490fd5b90503d808a833e610c41818361172d565b810190602081830312610aa1578051906001600160401b038211610d44570160e081830312610aa1576040519160e083018381106001600160401b038211176109cf57604052610c9082611794565b8352610c9e60208301611794565b602084015260408201516001600160601b0381168103610d4057604084015260608201516001600160401b038111610d405781610cdc9184016117c3565b606084015260808201516001600160401b038111610d405781610d009184016117c3565b608084015260a08201516001600160401b038111610d405791610d2a60c092610d359483016117c3565b60a085015201611787565b60c0820152386103a3565b8b80fd5b8a80fd5b6040513d8b823e3d90fd5b8780fd5b8580fd5b8480fd5b8380fd5b50346102a557806003193601126102a5576040517f00000000000000000000000000000000000000000000000000000000000000006001600160a01b03168152602090f35b50346102a557806003193601126102a5576040517f00000000000000000000000000000000000000000000000000000000000000006001600160a01b03168152602090f35b50346102a55760203660031901126102a5576004358082526001602052604082206006810160ff815460a01c1660058110156110715760018114908115611066575b5015611034576001820180546001600160a01b03163303611002576001600160401b036004840154168015159081610ff8575b5015610fc557815460ff60a01b1916600160a21b179091555483907f00000000000000000000000000000000000000000000000000000000000000006001600160a01b039081169116813b156108ce5782916044839260405194859384926249cec960e61b84528a600485015260248401525af18015610fba57610fa5575b50505460405163a2c1616960e01b8152600481019190915260248101839052602081604481867f00000000000000000000000000000000000000000000000000000000000000006001600160a01b03165af18015610f9a57610f66575b507fe1e1d79b8f28d3379fc32f617eaf54dd6bd4071074c77e91134770e04a81d6268280a280f35b6020813d602011610f92575b81610f7f6020938361172d565b81010312610f8d5751610f3e565b600080fd5b3d9150610f72565b6040513d85823e3d90fd5b81610faf9161172d565b6108ce578238610ee1565b6040513d84823e3d90fd5b60405162461bcd60e51b815260206004820152600b60248201526a1393d517d156141254915160aa1b6044820152606490fd5b9050421138610e62565b60405162461bcd60e51b815260206004820152600a60248201526927a7262cafa820aca2a960b11b6044820152606490fd5b60405162461bcd60e51b815260206004820152600a6024820152694e4f545f41435449564560b01b6044820152606490fd5b600291501438610e2f565b634e487b7160e01b85526021600452602485fd5b50346102a557806003193601126102a55760209054604051908152f35b50346102a55760403660031901126102a5576004356024356001600160401b0381116108ce576110d69036906004016116c6565b9082845260016020526040842091600683019081549060ff8260a01c166005811015611525576002036114f25760028501546001600160a01b031633036114be5760048501936001600160401b0385541680159081156114b3575b501561147c5787926007870160058801549360405195869463189a0c4b60e31b8652606060048701528193805490611168826116f3565b918260648a01526001811690816000146114565750600114611416575b5050928260209787959389958795600319878703016024880152818652878601378383018601526044840152601f01601f1916010301916001600160a01b03165afa90811561140b5786916113d1575b501561139c57805460ff60a01b1916600360a01b17905560018201546003830154915460088401546009850154600a860154600b870154600c88015460409590951c6001600160601b0316968a966001600160a01b039182169694959082169490937f000000000000000000000000000000000000000000000000000000000000000090921692909160ff16833b1561139857610124966001600160401b038a966040519c8d9b8c9a6371f70b0760e11b8c5260048c015260248b015260448a015281811660648a015260401c16608488015260a487015260c486015260e48501526101048401525af180156108d257611384575b505460405163a2c1616960e01b8152600481019190915260016024820152602081604481867f00000000000000000000000000000000000000000000000000000000000000006001600160a01b03165af18015610f9a57611355575b507f684dee5ed476d8b5cf94d6b530b4f5b1696b5e35b6edecfc00f97f76c3a1bc32602060405160018152a280f35b6020813d60201161137c575b8161136e6020938361172d565b81010312610f8d5751611326565b3d9150611361565b836113919194929461172d565b91386112ca565b8880fd5b60405162461bcd60e51b815260206004820152600d60248201526c15915492519657d19052531151609a1b6044820152606490fd5b90506020813d602011611403575b816113ec6020938361172d565b81010312610d57576113fd90611787565b386111d5565b3d91506113df565b6040513d88823e3d90fd5b83526020832091945082915b818310611439575050850160840192826020611185565b80546084848c0101528997508e9350602090920191600101611422565b60ff19166084808b019190915292151560051b8901909201955084915060209050611185565b60405162461bcd60e51b815260206004820152600f60248201526e111150511312539157d41054d4d151608a1b6044820152606490fd5b905042111538611131565b60405162461bcd60e51b815260206004820152600c60248201526b27a7262cafa1a620a4a6a2a960a11b6044820152606490fd5b60405162461bcd60e51b815260206004820152600b60248201526a1393d517d0d3105253515160aa1b6044820152606490fd5b634e487b7160e01b88526021600452602488fd5b50346102a557806003193601126102a5576040517f00000000000000000000000000000000000000000000000000000000000000006001600160a01b03168152602090f35b50346102a55760203660031901126102a557600435808252600160205260408220600681019060ff825460a01c1660058110156110715760010361160c57815460ff60a01b1916600160a11b1790915560020180546001600160a01b03191633908117909155907f0e1f58463da369c5bf09630219fad2558dd2b2ead275c5dc36269b384dc138fe8380a380f35b60405162461bcd60e51b815260206004820152600a6024820152691393d517d413d4d5115160b21b6044820152606490fd5b50346102a557806003193601126102a5576040517f00000000000000000000000000000000000000000000000000000000000000006001600160a01b03168152602090f35b9050346108dd57816003193601126108dd577f00000000000000000000000000000000000000000000000000000000000000006001600160a01b03168152602090f35b9181601f84011215610f8d578235916001600160401b038311610f8d5760208381860195010111610f8d57565b90600182811c92168015611723575b602083101461170d57565b634e487b7160e01b600052602260045260246000fd5b91607f1691611702565b90601f801991011681019081106001600160401b0382111761174e57604052565b634e487b7160e01b600052604160045260246000fd5b60005b8381106117775750506000910152565b8181015183820152602001611767565b51908115158203610f8d57565b51906001600160a01b0382168203610f8d57565b6001600160401b03811161174e57601f01601f191660200190565b81601f82011215610f8d5780516117d9816117a8565b926117e7604051948561172d565b81845260208284010111610f8d576118059160208085019101611764565b9056fea2646970667358221220401e32dd866c6b176aaa44981f6425ed3be538ba22869ae0bd7dbcb0001a9cfd64736f6c634300081e003360a0346100ba57601f61073938819003918201601f19168301916001600160401b038311848410176100bf578084926020946040528339810103126100ba57516001600160a01b0381168082036100ba57156100835760805260405161066390816100d6823960805181818160690152818160c0015281816102ab01526104c10152f35b60405162461bcd60e51b815260206004820152600f60248201526e1493d555115497d491545552549151608a1b6044820152606490fd5b600080fd5b634e487b7160e01b600052604160045260246000fdfe6080604052600436101561001257600080fd5b60003560e01c80631273b2401461049e5780633d4dff7b1461043b57806397d825f21461026f578063d746010b1461009d5763f887ea401461005357600080fd5b34610098576000366003190112610098576040517f00000000000000000000000000000000000000000000000000000000000000006001600160a01b03168152602090f35b600080fd5b34610098576040366003190112610098576004356100b9610569565b906100ee337f00000000000000000000000000000000000000000000000000000000000000006001600160a01b03161461057f565b600081815260208190526040902080546001600160a01b031692906101148415156105b9565b600381016001815461012960ff8216156105f1565b60ff19161790556020600260018060a01b036001840154169201926064845496600060405195869485936323b872dd60e01b8552600485015260018060a01b0316998a602485015260448401525af1908115610263576000916101f7575b50156101bb5760207fc8fa66dff4b9073528c3f1bf21a8dc9a18fdf09847e88e96188bc953aef519f09154604051908152a3005b60405162461bcd60e51b81526020600482015260146024820152731514905394d1915497d19493d357d1905253115160621b6044820152606490fd5b60203d60201161025c575b601f8101601f1916820167ffffffffffffffff811183821017610248576020918391604052810103126102445751908115158203610241575084610187565b80fd5b5080fd5b634e487b7160e01b84526041600452602484fd5b503d610202565b6040513d6000823e3d90fd5b34610098576080366003190112610098576004356001600160a01b038116908190036100985761029d610569565b60643590604435906102d9337f00000000000000000000000000000000000000000000000000000000000000006001600160a01b03161461057f565b6000828152602081905260409020546001600160a01b031661040b5782156103d85760405192608084019084821067ffffffffffffffff8311176103c25760409182526001600160a01b039283168086526020808701888152878501848152600060608a018181528982528185529087902099518a549089166001600160a01b0319918216178b55925160018b018054919099169316929092179096559451600288015593516003909601805460ff191696151560ff169690961790955590519081527fcfccc5211684bc31ce945214025a7453ba30a1ffcc38fcb691ce742437f3f2569190a4005b634e487b7160e01b600052604160045260246000fd5b60405162461bcd60e51b815260206004820152600b60248201526a414d4f554e545f5a45524f60a81b6044820152606490fd5b60405162461bcd60e51b81526020600482015260086024820152674455505f5441534b60c01b6044820152606490fd5b346100985760203660031901126100985760043560005260006020526080604060002060018060a01b038154169060018060a01b036001820154169060ff6003600283015492015416916040519384526020840152604083015215156060820152f35b34610098576040366003190112610098576004356104ba610569565b906104ef337f00000000000000000000000000000000000000000000000000000000000000006001600160a01b03161461057f565b8060005260006020527ff552ca82e113ac3c539c3d617f29fcd19c172a0c75dad017555c9e109f7fe18360206002604060002061053660018060a01b0382541615156105b9565b600381016001815461054b60ff8216156105f1565b60ff191617905501546040519081526001600160a01b0390941693a3005b602435906001600160a01b038216820361009857565b1561058657565b60405162461bcd60e51b815260206004820152600b60248201526a27a7262cafa927aaaa22a960a91b6044820152606490fd5b156105c057565b60405162461bcd60e51b81526020600482015260096024820152681393d517d193d5539160ba1b6044820152606490fd5b156105f857565b60405162461bcd60e51b815260206004820152600d60248201526c1053149150511657d192539053609a1b6044820152606490fdfea2646970667358221220980ae1ecbbd4d8d6f10f1784f9d6582e7717c61dc1662cf390d15e25876fcc8d64736f6c634300081e003360a0346100ac57601f6102d338819003918201601f19168301916001600160401b038311848410176100b1578084926020946040528339810103126100ac57516001600160a01b0381168082036100ac57156100755760805260405161020b90816100c882396080518181816056015260ad0152f35b60405162461bcd60e51b815260206004820152600f60248201526e1493d555115497d491545552549151608a1b6044820152606490fd5b600080fd5b634e487b7160e01b600052604160045260246000fdfe608080604052600436101561001357600080fd5b60003560e01c9081630e1af57b146101ad57508063a2c161691461008a5763f887ea401461004057600080fd5b34610085576000366003190112610085576040517f00000000000000000000000000000000000000000000000000000000000000006001600160a01b03168152602090f35b600080fd5b3461008557604036600319011261008557602435801515600435818303610085577f00000000000000000000000000000000000000000000000000000000000000006001600160a01b0316330361017a5760209281600052600084526040600020549060001461013e57604060017f5daaab86a9a4348e7f7cc86230715744289e475700ed1a986bba29e6f3d5710a9201935b836000526000865284826000205581519085825286820152a2604051908152f35b918261016e575b60407f5daaab86a9a4348e7f7cc86230715744289e475700ed1a986bba29e6f3d5710a9161011d565b60001990920191610145565b60405162461bcd60e51b815260206004820152600b60248201526a27a7262cafa927aaaa22a960a91b6044820152606490fd5b3461008557602036600319011261008557602090600435600052600082526040600020548152f3fea264697066735822122069bca4736fab1b6acf33a0959c3935e15db0c38c61411a7d49afae7d0d923d7b64736f6c634300081e0033","linkReferences":{}},"methodIdentifiers":{"cancel(bytes32)":"c4d252f5","claimTask(bytes32)":"70f8c6f9","escrow()":"e2fdcc17","nonce()":"affed0e0","registry()":"7b103999","reputation()":"c52164c6","routePayment(uint256,bytes,uint96,uint64,address,bytes32,uint64,uint64,bytes32,uint8,bytes32,bytes32)":"e38d0f9b","settlePayment(bytes32,bytes)":"88079c37","tasks(bytes32)":"e579f500","usdc()":"3e413bee","usdcAuth()":"47975f0b"},"id":18}