{"abi":[{"type":"function","name":"verify","inputs":[{"name":"","type":"bytes","internalType":"bytes"},{"name":"result","type":"bytes","internalType":"bytes"},{"name":"expectedResultHash","type":"bytes32","internalType":"bytes32"}],"outputs":[{"name":"","type":"bool","internalType":"bool"}],"stateMutability":"pure"}],"bytecode":{"object":"0x60808060405234601557610161908161001b8239f35b600080fdfe608080604052600436101561001357600080fd5b60003560e01c63c4d062581461002857600080fd5b346100e25760603660031901126100e25760043567ffffffffffffffff81116100e2576100599036906004016100fd565b505060243567ffffffffffffffff81116100e25761007b9036906004016100fd565b67ffffffffffffffff81939293116100e757601f8101601f19908116603f0116820167ffffffffffffffff8111838210176100e757604052808252602082019036818501116100e25760208160009282968537840101526044359151902014604051908152f35b600080fd5b634e487b7160e01b600052604160045260246000fd5b9181601f840112156100e25782359167ffffffffffffffff83116100e257602083818601950101116100e25756fea26469706673582212207faf806f3cbd4b470121f307f43e6d707f8011b7caea75f2924aed8b223eedd464736f6c634300081e0033","linkReferences":{}},"methodIdentifiers":{"verify(bytes,bytes,bytes32)":"c4d06258"},"id":22}