{"abi":[{"type":"function","name":"agentCount","inputs":[],"outputs":[{"name":"","type":"uint256","internalType":"uint256"}],"stateMutability":"view"},{"type":"function","name":"getAgent","inputs":[{"name":"agentId","type":"uint256","internalType":"uint256"}],"outputs":[{"name":"","type":"tuple","internalType":"struct AgentRegistry.AgentInfo","components":[{"name":"owner","type":"address","internalType":"address"},{"name":"payoutAddress","type":"address","internalType":"address"},{"name":"pricePerCall","type":"uint96","internalType":"uint96"},{"name":"name","type":"string","internalType":"string"},{"name":"description","type":"string","internalType":"string"},{"name":"endpoint","type":"string","internalType":"string"},{"name":"active","type":"bool","internalType":"bool"}]}],"stateMutability":"view"},{"type":"function","name":"listAgents","inputs":[{"name":"offset","type":"uint256","internalType":"uint256"},{"name":"limit","type":"uint256","internalType":"uint256"}],"outputs":[{"name":"agents","type":"tuple[]","internalType":"struct AgentRegistry.AgentInfo[]","components":[{"name":"owner","type":"address","internalType":"address"},{"name":"payoutAddress","type":"address","internalType":"address"},{"name":"pricePerCall","type":"uint96","internalType":"uint96"},{"name":"name","type":"string","internalType":"string"},{"name":"description","type":"string","internalType":"string"},{"name":"endpoint","type":"string","internalType":"string"},{"name":"active","type":"bool","internalType":"bool"}]}],"stateMutability":"view"},{"type":"function","name":"registerAgent","inputs":[{"name":"name","type":"string","internalType":"string"},{"name":"description","type":"string","internalType":"string"},{"name":"pricePerCall","type":"uint96","internalType":"uint96"},{"name":"endpoint","type":"string","internalType":"string"},{"name":"payoutAddress","type":"address","internalType":"address"}],"outputs":[{"name":"agentId","type":"uint256","internalType":"uint256"}],"stateMutability":"nonpayable"},{"type":"function","name":"setActive","inputs":[{"name":"agentId","type":"uint256","internalType":"uint256"},{"name":"active","type":"bool","internalType":"bool"}],"outputs":[],"stateMutability":"nonpayable"},{"type":"function","name":"updateAgent","inputs":[{"name":"agentId","type":"uint256","internalType":"uint256"},{"name":"name","type":"string","internalType":"string"},{"name":"description","type":"string","internalType":"string"},{"name":"pricePerCall","type":"uint96","internalType":"uint96"},{"name":"endpoint","type":"string","internalType":"string"},{"name":"payoutAddress","type":"address","internalType":"address"}],"outputs":[],"stateMutability":"nonpayable"},{"type":"event","name":"AgentRegistered","inputs":[{"name":"agentId","type":"uint256","indexed":true,"internalType":"uint256"},{"name":"owner","type":"address","indexed":true,"internalType":"address"},{"name":"payoutAddress","type":"address","indexed":false,"internalType":"address"}],"anonymous":false},{"type":"event","name":"AgentStatusChanged","inputs":[{"name":"agentId","type":"uint256","indexed":true,"internalType":"uint256"},{"name":"active","type":"bool","indexed":false,"internalType":"bool"}],"anonymous":false},{"type":"event","name":"AgentUpdated","inputs":[{"name":"agentId","type":"uint256","indexed":true,"internalType":"uint256"}],"anonymous":false}],"bytecode":{"object":"0x60808060405234601557610fbc908161001b8239f35b600080fdfe6080604052600436101561001257600080fd5b60003560e01c80631047d2091461093c5780632de5aaf7146108d9578063a6332827146104b6578063b7dc128414610498578063d86433a5146100f65763e60a955d1461005e57600080fd5b346100f15760403660031901126100f157600435602435801515908181036100f1577f5b7fa91ee392647b777096db0d386dc7cb7a3bfbc86ae6a10e0500de3a5ad02f916100e86020928560005260018452600560406000206100d660018060a01b038254166100cf811515610e04565b3314610f4e565b019060ff801983541691151516179055565b604051908152a2005b600080fd5b346100f15760c03660031901126100f1576004356024356001600160401b0381116100f157610129903690600401610a86565b906044356001600160401b0381116100f157610149903690600401610a86565b90606435936001600160601b03851685036100f1576084356001600160401b0381116100f15761017d903690600401610a86565b92909360a4359560018060a01b0387168097036100f1578860005260016020526040600020936101bb60018060a01b038654166100cf811515610e04565b6101c6811515610e3c565b6101d1881515610e78565b60028501916001600160401b0382116103a0576101f8826101f28554610b8e565b85610efc565b600090601f831160011461043457610229929160009183610429575b50508160011b916000199060031b1c19161790565b90555b60038301916001600160401b0382116103a05761024d826101f28554610b8e565b600090601f83116001146103c15791806102829260049695946000926103b65750508160011b916000199060031b1c19161790565b90555b6001810180546001600160a01b031660a09790971b6001600160a01b03191696909617865501916001600160401b0382116103a0576102c8826101f28554610b8e565b600090601f831160011461033c576102f89291600091836103315750508160011b916000199060031b1c19161790565b90555b81546001600160a01b0319161790557ff9ad94c5cd385423b7d420bd953716dc348c65914cceb49759c095b7ba0064a9600080a2005b013590508780610214565b8382526020822091601f198416815b818110610388575090846001959493921061036e575b505050811b0190556102fb565b0135600019600384901b60f8161c19169055868080610361565b9193602060018192878701358155019501920161034b565b634e487b7160e01b600052604160045260246000fd5b013590508b80610214565b8382526020822091601f198416815b8181106104115750916001939185600498979694106103f7575b505050811b019055610285565b0135600019600384901b60f8161c191690558a80806103ea565b919360206001819287870135815501950192016103d0565b013590508c80610214565b8382526020822091601f198416815b8181106104805750908460019594939210610466575b505050811b01905561022c565b0135600019600384901b60f8161c191690558b8080610459565b91936020600181928787013581550195019201610443565b346100f15760003660031901126100f1576020600054604051908152f35b346100f15760a03660031901126100f1576004356001600160401b0381116100f1576104e6903690600401610a86565b906024356001600160401b0381116100f157610506903690600401610a86565b926044356001600160601b0381168091036100f1576064356001600160401b0381116100f15761053a903690600401610a86565b6084356001600160a01b038116979192908890036100f1576105ca610621916105bb8a98610569891515610e3c565b6105748a1515610e78565b6105ac610582600054610b3f565b9b8c6000556040519a6105948c610ab3565b338c5260208c019e8f5260408c019a8b523691610eb6565b9560608a019687523691610eb6565b94608088019586523691610eb6565b60a0868101918252600160c0880181815260008b8152602083905260409020985189546001600160a01b039182166001600160a01b0319918216178b559c51985198169790921b909a169590951798860198909855565b51805160028501916001600160401b0382116103a057610645826101f28554610b8e565b602090601f8311600114610872576106759291600091836108675750508160011b916000199060031b1c19161790565b90555b51805160038401916001600160401b0382116103a05761069c826101f28554610b8e565b602090601f8311600114610800576106cc9291600091836107f55750508160011b916000199060031b1c19161790565b90555b6004820194519485516001600160401b0381116103a0576020966106f7826101f28554610b8e565b8790601f831160011461078757826107489695936005959361072f9360009261077c5750508160011b916000199060031b1c19161790565b90555b51151591019060ff801983541691151516179055565b604051908152817f8f041a5898b573cd1b50f3153fa5378e55053d1c42f4082ef64e0a97a7892cd6843393a3604051908152f35b015190508b80610214565b90601f1983169184600052816000209260005b8181106107de575092600192859261074899989660059896106107c5575b505050811b019055610732565b015160001960f88460031b161c191690558a80806107b8565b92938b60018192878601518155019501930161079a565b015190508980610214565b90601f1983169184600052816000209260005b81811061084f5750908460019594939210610836575b505050811b0190556106cf565b015160001960f88460031b161c19169055888080610829565b92936020600181928786015181550195019301610813565b015190508a80610214565b90601f1983169184600052816000209260005b8181106108c157509084600195949392106108a8575b505050811b019055610678565b015160001960f88460031b161c1916905589808061089b565b92936020600181928786015181550195019301610885565b346100f15760203660031901126100f1576108f2610b06565b50600435600052600160205261093861090e6040600020610c6c565b8051610924906001600160a01b03161515610e04565b604051918291602083526020830190610a03565b0390f35b346100f15760403660031901126100f15761095b602435600435610ce6565b6040518091602082016020835281518091526040830190602060408260051b8601019301916000905b82821061099357505050500390f35b919360019193955060206109b28192603f198a82030186528851610a03565b9601920192018594939192610984565b919082519283825260005b8481106109ee575050826000602080949584010152601f8019910116010190565b806020809284010151828286010152016109cd565b9060018060a01b03825116815260018060a01b0360208301511660208201526001600160601b03604083015116604082015260c080610a7b610a69610a57606087015160e0606088015260e08701906109c2565b608087015186820360808801526109c2565b60a086015185820360a08701526109c2565b930151151591015290565b9181601f840112156100f1578235916001600160401b0383116100f157602083818601950101116100f157565b60e081019081106001600160401b038211176103a057604052565b90601f801991011681019081106001600160401b038211176103a057604052565b6001600160401b0381116103a05760051b60200190565b60405190610b1382610ab3565b600060c08382815282602082015282604082015260608082015260606080820152606060a08201520152565b6000198114610b4e5760010190565b634e487b7160e01b600052601160045260246000fd5b8051821015610b785760209160051b010190565b634e487b7160e01b600052603260045260246000fd5b90600182811c92168015610bbe575b6020831014610ba857565b634e487b7160e01b600052602260045260246000fd5b91607f1691610b9d565b9060405191826000825492610bdc84610b8e565b8084529360018116908115610c4a5750600114610c03575b50610c0192500383610ace565b565b90506000929192526020600020906000915b818310610c2e575050906020610c019282010138610bf4565b6020919350806001915483858901015201910190918492610c15565b905060209250610c0194915060ff191682840152151560051b82010138610bf4565b90604051610c7981610ab3565b82546001600160a01b0390811682526001840154908116602083015260a01c604082015291829060c09060ff90600590610cb560028201610bc8565b6060860152610cc660038201610bc8565b6080860152610cd760048201610bc8565b60a08601520154161515910152565b91906000549081841015610dc657830190818411610b4e57808211610dbe575b5082810392818411610b4e57610d1b84610aef565b93610d296040519586610ace565b808552610d38601f1991610aef565b0160005b818110610da75750508360009160018101809111610b4e575b83811115610d635750505050565b80610da2916000526001602052610d9c604060002094610d8b610d8582610b3f565b96610c6c565b610d958287610b64565b5284610b64565b50610b3f565b610d55565b602090610db2610b06565b82828901015201610d3c565b905038610d06565b50506040519091506000610ddb602083610ace565b81526000805b818110610ded57505090565b602090610df8610b06565b82828601015201610de1565b15610e0b57565b60405162461bcd60e51b81526020600482015260096024820152681393d517d193d5539160ba1b6044820152606490fd5b15610e4357565b60405162461bcd60e51b815260206004820152600d60248201526c1390535157d491545552549151609a1b6044820152606490fd5b15610e7f57565b60405162461bcd60e51b815260206004820152600f60248201526e14105653d55517d491545552549151608a1b6044820152606490fd5b9291926001600160401b0382116103a05760405191610edf601f8201601f191660200184610ace565b8294818452818301116100f1578281602093846000960137010152565b601f8211610f0957505050565b6000526020600020906020601f840160051c83019310610f44575b601f0160051c01905b818110610f38575050565b60008155600101610f2d565b9091508190610f24565b15610f5557565b60405162461bcd60e51b81526020600482015260096024820152682727aa2fa7aba722a960b91b6044820152606490fdfea26469706673582212201caa4bb24730545c3a79fe43ff547ad700261656aaff027bfd4f3d6c0f281b0264736f6c634300081e0033","linkReferences":{}},"methodIdentifiers":{"agentCount()":"b7dc1284","getAgent(uint256)":"2de5aaf7","listAgents(uint256,uint256)":"1047d209","registerAgent(string,string,uint96,string,address)":"a6332827","setActive(uint256,bool)":"e60a955d","updateAgent(uint256,string,string,uint96,string,address)":"d86433a5"},"id":17}