{"abi":[{"type":"function","name":"agentCount","inputs":[],"outputs":[{"name":"","type":"uint256","internalType":"uint256"}],"stateMutability":"view"},{"type":"function","name":"getAgent","inputs":[{"name":"agentId","type":"uint256","internalType":"uint256"}],"outputs":[{"name":"","type":"tuple","internalType":"struct AgentRegistry.AgentInfo","components":[{"name":"owner","type":"address","internalType":"address"},{"name":"payoutAddress","type":"address","internalType":"address"},{"name":"pricePerCall","type":"uint96","internalType":"uint96"},{"name":"name","type":"string","internalType":"string"},{"name":"description","type":"string","internalType":"string"},{"name":"endpoint","type":"string","internalType":"string"},{"name":"active","type":"bool","internalType":"bool"}]}],"stateMutability":"view"},{"type":"function","name":"listAgents","inputs":[{"name":"offset","type":"uint256","internalType":"uint256"},{"name":"limit","type":"uint256","internalType":"uint256"}],"outputs":[{"name":"agents","type":"tuple[]","internalType":"struct AgentRegistry.AgentInfo[]","components":[{"name":"owner","type":"address","internalType":"address"},{"name":"payoutAddress","type":"address","internalType":"address"},{"name":"pricePerCall","type":"uint96","internalType":"uint96"},{"name":"name","type":"string","internalType":"string"},{"name":"description","type":"string","internalType":"string"},{"name":"endpoint","type":"string","internalType":"string"},{"name":"active","type":"bool","internalType":"bool"}]}],"stateMutability":"view"},{"type":"function","name":"registerAgent","inputs":[{"name":"name","type":"string","internalType":"string"},{"name":"description","type":"string","internalType":"string"},{"name":"pricePerCall","type":"uint96","internalType":"uint96"},{"name":"endpoint","type":"string","internalType":"string"},{"name":"payoutAddress","type":"address","internalType":"address"}],"outputs":[{"name":"agentId","type":"uint256","internalType":"uint256"}],"stateMutability":"nonpayable"},{"type":"function","name":"setActive","inputs":[{"name":"agentId","type":"uint256","internalType":"uint256"},{"name":"active","type":"bool","internalType":"bool"}],"outputs":[],"stateMutability":"nonpayable"},{"type":"function","name":"updateAgent","inputs":[{"name":"agentId","type":"uint256","internalType":"uint256"},{"name":"name","type":"string","internalType":"string"},{"name":"description","type":"string","internalType":"string"},{"name":"pricePerCall","type":"uint96","internalType":"uint96"},{"name":"endpoint","type":"string","internalType":"string"},{"name":"payoutAddress","type":"address","internalType":"address"}],"outputs":[],"stateMutability":"nonpayable"},{"type":"event","name":"AgentRegistered","inputs":[{"name":"agentId","type":"uint256","indexed":true,"internalType":"uint256"},{"name":"owner","type":"address","indexed":true,"internalType":"address"},{"name":"payoutAddress","type":"address","indexed":false,"internalType":"address"}],"anonymous":false},{"type":"event","name":"AgentStatusChanged","inputs":[{"name":"agentId","type":"uint256","indexed":true,"internalType":"uint256"},{"name":"active","type":"bool","indexed":false,"internalType":"bool"}],"anonymous":false},{"type":"event","name":"AgentUpdated","inputs":[{"name":"agentId","type":"uint256","indexed":true,"internalType":"uint256"}],"anonymous":false}],"bytecode":{"object":"0x60808060405234601557610f5a908161001a8239f35b5f80fdfe60806040526004361015610011575f80fd5b5f3560e01c80631047d2091461090f5780632de5aaf7146108ae578063a6332827146104a0578063b7dc128414610484578063d86433a5146100f05763e60a955d1461005b575f80fd5b346100ec5760403660031901126100ec57600435602435801515908181036100ec577f5b7fa91ee392647b777096db0d386dc7cb7a3bfbc86ae6a10e0500de3a5ad02f916100e3602092855f5260018452600560405f206100d160018060a01b038254166100ca811515610da6565b3314610eec565b019060ff801983541691151516179055565b604051908152a2005b5f80fd5b346100ec5760c03660031901126100ec576004356024356001600160401b0381116100ec57610123903690600401610a3b565b906044356001600160401b0381116100ec57610143903690600401610a3b565b90606435936001600160601b03851685036100ec576084356001600160401b0381116100ec57610177903690600401610a3b565b92909360a4359560018060a01b0387168097036100ec57885f52600160205260405f20936101b360018060a01b038654166100ca811515610da6565b6101be811515610dde565b6101c9881515610e1a565b60028501916001600160401b03821161038e576101f0826101ea8554610b3d565b85610e9d565b5f90601f83116001146104205761021e92915f9183610415575b50508160011b915f199060031b1c19161790565b90555b60038301916001600160401b03821161038e57610242826101ea8554610b3d565b5f90601f83116001146103ad5791806102749260049695945f926103a25750508160011b915f199060031b1c19161790565b90555b6001810180546001600160a01b031660a09790971b6001600160a01b03191696909617865501916001600160401b03821161038e576102ba826101ea8554610b3d565b5f90601f831160011461032a576102e792915f918361031f5750508160011b915f199060031b1c19161790565b90555b81546001600160a01b0319161790557ff9ad94c5cd385423b7d420bd953716dc348c65914cceb49759c095b7ba0064a95f80a2005b01359050878061020a565b601f19831691845f5260205f20925f5b818110610376575090846001959493921061035d575b505050811b0190556102ea565b01355f19600384901b60f8161c19169055868080610350565b9193602060018192878701358155019501920161033a565b634e487b7160e01b5f52604160045260245ffd5b013590508b8061020a565b601f19831691845f5260205f20925f5b8181106103fd5750916001939185600498979694106103e4575b505050811b019055610277565b01355f19600384901b60f8161c191690558a80806103d7565b919360206001819287870135815501950192016103bd565b013590508c8061020a565b601f19831691845f5260205f20925f5b81811061046c5750908460019594939210610453575b505050811b019055610221565b01355f19600384901b60f8161c191690558b8080610446565b91936020600181928787013581550195019201610430565b346100ec575f3660031901126100ec5760205f54604051908152f35b346100ec5760a03660031901126100ec576004356001600160401b0381116100ec576104d0903690600401610a3b565b906024356001600160401b0381116100ec576104f0903690600401610a3b565b926044356001600160601b0381168091036100ec576064356001600160401b0381116100ec57610524903690600401610a3b565b6084356001600160a01b038116979192908890036100ec576105b2610608916105a38a98610553891515610dde565b61055e8a1515610e1a565b61059461056b5f54610af3565b9b8c5f556040519a61057c8c610a68565b338c5260208c019e8f5260408c019a8b523691610e58565b9560608a019687523691610e58565b94608088019586523691610e58565b60a0868101918252600160c088018181525f8b8152602083905260409020985189546001600160a01b039182166001600160a01b0319918216178b559c51985198169790921b909a169590951798860198909855565b51805160028501916001600160401b03821161038e5761062c826101ea8554610b3d565b602090601f831160011461084b5761065a92915f91836108405750508160011b915f199060031b1c19161790565b90555b51805160038401916001600160401b03821161038e57610681826101ea8554610b3d565b602090601f83116001146107dd576106af92915f91836107d25750508160011b915f199060031b1c19161790565b90555b6004820194519485516001600160401b03811161038e576020966106da826101ea8554610b3d565b8790601f8311600114610768578261072996959360059593610710935f9261075d5750508160011b915f199060031b1c19161790565b90555b51151591019060ff801983541691151516179055565b604051908152817f8f041a5898b573cd1b50f3153fa5378e55053d1c42f4082ef64e0a97a7892cd6843393a3604051908152f35b015190508b8061020a565b90601f19831691845f52815f20925f5b8181106107bb575092600192859261072999989660059896106107a3575b505050811b019055610713565b01515f1960f88460031b161c191690558a8080610796565b92938b600181928786015181550195019301610778565b01519050898061020a565b90601f19831691845f52815f20925f5b8181106108285750908460019594939210610810575b505050811b0190556106b2565b01515f1960f88460031b161c19169055888080610803565b929360206001819287860151815501950193016107ed565b015190508a8061020a565b90601f19831691845f52815f20925f5b818110610896575090846001959493921061087e575b505050811b01905561065d565b01515f1960f88460031b161c19169055898080610871565b9293602060018192878601518155019501930161085b565b346100ec5760203660031901126100ec576108c7610abb565b506004355f52600160205261090b6108e160405f20610c15565b80516108f7906001600160a01b03161515610da6565b6040519182916020835260208301906109b8565b0390f35b346100ec5760403660031901126100ec5761092e602435600435610c8f565b6040518091602082016020835281518091526040830190602060408260051b8601019301915f905b82821061096557505050500390f35b919360019193955060206109848192603f198a820301865288516109b8565b9601920192018594939192610956565b805180835260209291819084018484015e5f828201840152601f01601f1916010190565b9060018060a01b03825116815260018060a01b0360208301511660208201526001600160601b03604083015116604082015260c080610a30610a1e610a0c606087015160e0606088015260e0870190610994565b60808701518682036080880152610994565b60a086015185820360a0870152610994565b930151151591015290565b9181601f840112156100ec578235916001600160401b0383116100ec57602083818601950101116100ec57565b60e081019081106001600160401b0382111761038e57604052565b90601f801991011681019081106001600160401b0382111761038e57604052565b6001600160401b03811161038e5760051b60200190565b60405190610ac882610a68565b5f60c08382815282602082015282604082015260608082015260606080820152606060a08201520152565b5f198114610b015760010190565b634e487b7160e01b5f52601160045260245ffd5b8051821015610b295760209160051b010190565b634e487b7160e01b5f52603260045260245ffd5b90600182811c92168015610b6b575b6020831014610b5757565b634e487b7160e01b5f52602260045260245ffd5b91607f1691610b4c565b9060405191825f825492610b8884610b3d565b8084529360018116908115610bf35750600114610baf575b50610bad92500383610a83565b565b90505f9291925260205f20905f915b818310610bd7575050906020610bad928201015f610ba0565b6020919350806001915483858901015201910190918492610bbe565b905060209250610bad94915060ff191682840152151560051b8201015f610ba0565b90604051610c2281610a68565b82546001600160a01b0390811682526001840154908116602083015260a01c604082015291829060c09060ff90600590610c5e60028201610b75565b6060860152610c6f60038201610b75565b6080860152610c8060048201610b75565b60a08601520154161515910152565b91905f549081841015610d6a57830190818411610b0157808211610d62575b5082810392818411610b0157610cc384610aa4565b93610cd16040519586610a83565b808552610ce0601f1991610aa4565b015f5b818110610d4b575050835f9160018101809111610b01575b83811115610d095750505050565b80610d46915f526001602052610d4060405f2094610d2f610d2982610af3565b96610c15565b610d398287610b15565b5284610b15565b50610af3565b610cfb565b602090610d56610abb565b82828901015201610ce3565b90505f610cae565b5090915050604051610d7d602082610a83565b5f81525f805b818110610d8f57505090565b602090610d9a610abb565b82828601015201610d83565b15610dad57565b60405162461bcd60e51b81526020600482015260096024820152681393d517d193d5539160ba1b6044820152606490fd5b15610de557565b60405162461bcd60e51b815260206004820152600d60248201526c1390535157d491545552549151609a1b6044820152606490fd5b15610e2157565b60405162461bcd60e51b815260206004820152600f60248201526e14105653d55517d491545552549151608a1b6044820152606490fd5b9291926001600160401b03821161038e5760405191610e81601f8201601f191660200184610a83565b8294818452818301116100ec578281602093845f960137010152565b601f8211610eaa57505050565b5f5260205f20906020601f840160051c83019310610ee2575b601f0160051c01905b818110610ed7575050565b5f8155600101610ecc565b9091508190610ec3565b15610ef357565b60405162461bcd60e51b81526020600482015260096024820152682727aa2fa7aba722a960b91b6044820152606490fdfea26469706673582212202b37a7de0fc310394e64a833f8e62c30112d0e779a8a6ecef5604c559e6ab9f164736f6c634300081e0033","linkReferences":{}},"methodIdentifiers":{"agentCount()":"b7dc1284","getAgent(uint256)":"2de5aaf7","listAgents(uint256,uint256)":"1047d209","registerAgent(string,string,uint96,string,address)":"a6332827","setActive(uint256,bool)":"e60a955d","updateAgent(uint256,string,string,uint96,string,address)":"d86433a5"},"id":17}