{"abi":[{"type":"constructor","inputs":[{"name":"router_","type":"address","internalType":"address"}],"stateMutability":"nonpayable"},{"type":"function","name":"depositFrom","inputs":[{"name":"token","type":"address","internalType":"address"},{"name":"payer","type":"address","internalType":"address"},{"name":"taskId","type":"bytes32","internalType":"bytes32"},{"name":"amount","type":"uint256","internalType":"uint256"}],"outputs":[],"stateMutability":"nonpayable"},{"type":"function","name":"deposits","inputs":[{"name":"","type":"bytes32","internalType":"bytes32"}],"outputs":[{"name":"payer","type":"address","internalType":"address"},{"name":"token","type":"address","internalType":"address"},{"name":"amount","type":"uint256","internalType":"uint256"},{"name":"released","type":"bool","internalType":"bool"}],"stateMutability":"view"},{"type":"function","name":"refundTo","inputs":[{"name":"taskId","type":"bytes32","internalType":"bytes32"},{"name":"to","type":"address","internalType":"address"}],"outputs":[],"stateMutability":"nonpayable"},{"type":"function","name":"releaseTo","inputs":[{"name":"taskId","type":"bytes32","internalType":"bytes32"},{"name":"to","type":"address","internalType":"address"}],"outputs":[],"stateMutability":"nonpayable"},{"type":"function","name":"router","inputs":[],"outputs":[{"name":"","type":"address","internalType":"address"}],"stateMutability":"view"},{"type":"event","name":"Deposited","inputs":[{"name":"taskId","type":"bytes32","indexed":true,"internalType":"bytes32"},{"name":"payer","type":"address","indexed":true,"internalType":"address"},{"name":"token","type":"address","indexed":true,"internalType":"address"},{"name":"amount","type":"uint256","indexed":false,"internalType":"uint256"}],"anonymous":false},{"type":"event","name":"Refunded","inputs":[{"name":"taskId","type":"bytes32","indexed":true,"internalType":"bytes32"},{"name":"to","type":"address","indexed":true,"internalType":"address"},{"name":"amount","type":"uint256","indexed":false,"internalType":"uint256"}],"anonymous":false},{"type":"event","name":"Released","inputs":[{"name":"taskId","type":"bytes32","indexed":true,"internalType":"bytes32"},{"name":"to","type":"address","indexed":true,"internalType":"address"},{"name":"amount","type":"uint256","indexed":false,"internalType":"uint256"}],"anonymous":false}],"bytecode":{"object":"0x60a0346100ba57601f61070838819003918201601f19168301916001600160401b038311848410176100be578084926020946040528339810103126100ba57516001600160a01b0381168082036100ba57156100835760805260405161063590816100d3823960805181818160650152818160bb0152818161029b01526104960152f35b60405162461bcd60e51b815260206004820152600f60248201526e1493d555115497d491545552549151608a1b6044820152606490fd5b5f80fd5b634e487b7160e01b5f52604160045260245ffdfe60806040526004361015610011575f80fd5b5f3560e01c80631273b240146104735780633d4dff7b1461041357806397d825f21461025f578063d746010b146100985763f887ea4014610050575f80fd5b34610094575f366003190112610094576040517f00000000000000000000000000000000000000000000000000000000000000006001600160a01b03168152602090f35b5f80fd5b34610094576040366003190112610094576004356100b461053b565b906100e9337f00000000000000000000000000000000000000000000000000000000000000006001600160a01b031614610551565b5f81815260208190526040902080546001600160a01b0316929061010e84151561058b565b600381016001815461012360ff8216156105c3565b60ff19161790556020600260018060a01b0360018401541692019260648454965f60405195869485936323b872dd60e01b8552600485015260018060a01b0316998a602485015260448401525af1908115610254575f916101ef575b50156101b35760207fc8fa66dff4b9073528c3f1bf21a8dc9a18fdf09847e88e96188bc953aef519f09154604051908152a3005b60405162461bcd60e51b81526020600482015260146024820152731514905394d1915497d19493d357d1905253115160621b6044820152606490fd5b905060203d60201161024d575b601f8101601f1916820167ffffffffffffffff8111838210176102395760209183916040528101031261009457518015158103610094578461017f565b634e487b7160e01b5f52604160045260245ffd5b503d6101fc565b6040513d5f823e3d90fd5b34610094576080366003190112610094576004356001600160a01b038116908190036100945761028d61053b565b60643590604435906102c9337f00000000000000000000000000000000000000000000000000000000000000006001600160a01b031614610551565b5f828152602081905260409020546001600160a01b03166103e35782156103b05760405192608084019084821067ffffffffffffffff8311176102395760409182526001600160a01b0392831680865260208087018881528785018481525f60608a018181528982528185529087902099518a549089166001600160a01b0319918216178b55925160018b018054919099169316929092179096559451600288015593516003909601805460ff191696151560ff169690961790955590519081527fcfccc5211684bc31ce945214025a7453ba30a1ffcc38fcb691ce742437f3f2569190a4005b60405162461bcd60e51b815260206004820152600b60248201526a414d4f554e545f5a45524f60a81b6044820152606490fd5b60405162461bcd60e51b81526020600482015260086024820152674455505f5441534b60c01b6044820152606490fd5b34610094576020366003190112610094576004355f525f602052608060405f2060018060a01b038154169060018060a01b036001820154169060ff6003600283015492015416916040519384526020840152604083015215156060820152f35b346100945760403660031901126100945760043561048f61053b565b906104c4337f00000000000000000000000000000000000000000000000000000000000000006001600160a01b031614610551565b805f525f6020527ff552ca82e113ac3c539c3d617f29fcd19c172a0c75dad017555c9e109f7fe1836020600260405f2061050860018060a01b03825416151561058b565b600381016001815461051d60ff8216156105c3565b60ff191617905501546040519081526001600160a01b0390941693a3005b602435906001600160a01b038216820361009457565b1561055857565b60405162461bcd60e51b815260206004820152600b60248201526a27a7262cafa927aaaa22a960a91b6044820152606490fd5b1561059257565b60405162461bcd60e51b81526020600482015260096024820152681393d517d193d5539160ba1b6044820152606490fd5b156105ca57565b60405162461bcd60e51b815260206004820152600d60248201526c1053149150511657d192539053609a1b6044820152606490fdfea26469706673582212203d3a0ec811fa51fbe6142fa6964909f4d52de7bc88393aaa5e813c4b4235d35464736f6c634300081e0033","linkReferences":{}},"methodIdentifiers":{"depositFrom(address,address,bytes32,uint256)":"97d825f2","deposits(bytes32)":"3d4dff7b","refundTo(bytes32,address)":"1273b240","releaseTo(bytes32,address)":"d746010b","router()":"f887ea40"},"id":16}